S0240000435F41726475696E6F5F4173656D626C65725F496E746572617074692E73726563F3
S11300000C9434000C9446000C946A000C94460042
S11300100C9446000C9446000C9446000C94460044
S11300200C9446000C9446000C9446000C94460034
S11300300C9446000C9446000C9446000C94460024
S11300400C9446000C9446000C9446000C94460014
S11300500C9446000C9446000C9446000C94460004
S11300600C9446000C94460011241FBECFEFD8E038
S1130070DEBFCDBF21E0A0E0B1E001C01D92A230FF
S1130080B207E1F70E9451000C9482000C94000026
S113009081E084B985B98AB1877F8AB982E08DBB52
S11300A008950E9448008091000190910101892BDC
S11300B011F47894F8CFF8942FEF87EA91E6215061
S11300C080409040E1F700C00000109201011092BE
S11300D00001E9CF1F920F920FB60F9211248F9354
S11300E09F9395B181E0892785B981E090E0909351
S11300F00101809300019F918F910F900FBE0F908B
S10B01001F901895F894FFCF3D
S9030000FC
